S00F00006176725F766F6C2E737265631C
S113000019C033C032C031C030C02FC02EC09EC30F
S11300102CC02BC02AC088C328C027C067C325C0F2
S113002024C023C022C021C020C0C1C31EC01DC023
S11300301CC01BC011241FBECFEFD4E0DEBFCDBF58
S113004011E0A0E0B1E0EAEAF9E002C005900D9207
S1130050A831B107D9F711E0A8E1B1E001C01D92C0
S1130060A432B107E1F75BD49EC4CACFCF93DF9328
S113007000D00F92CDB7DEB78B8381E0898385E210
S113008090E0FC0190818981982381E0992309F40F
S113009080E08A839B818A819817D9F08B81813093
S11300A059F485E290E025E230E0F90130812981BC
S11300B0232BFC0120830EC085E290E025E230E092
S11300C0F9012081322F298120952323FC012083EB
S11300D001C000000F900F900F90DF91CF91089511
S11300E0CF93DF9300D00F92CDB7DEB78B8382E03E
S11300F0898385E290E0FC0190818981982381E0E5
S1130100992309F480E08A839B818A819817D9F026
S11301108B81813059F485E290E025E230E0F901E9
S113012030812981232BFC0120830EC085E290E0DD
S113013025E230E0F9012081322F29812095232303
S1130140FC01208301C000000F900F900F90DF91FD
S1130150CF910895CF93DF9300D00F92CDB7DEB740
S11301608B8380E889838BE290E0FC019081898114
S1130170982381E0992309F480E08A839B818A8112
S11301809817D9F08B81813059F48BE290E02BE2FF
S113019030E0F90130812981232BFC0120830EC03A
S11301A08BE290E02BE230E0F9012081322F2981AB
S11301B020952323FC01208301C000000F900F90A1
S11301C00F90DF91CF910895CF93DF93CDB7DEB732
S11301D080911B01882F90E0019621E330E0B90162
S11301E0BBD380931B0180911B01882319F5809157
S11301F01D0190911E01A0911F01B09120018F3F1C
S11302002FEF92072FEFA2072FEFB20799F08091FB
S11302101D0190911E01A0911F01B0912001019632
S1130220A11DB11D80931D0190931E01A0931F0178
S1130230B0932001DF91CF910895CF93DF93CDB791
S1130240DEB780911A01882F90E0019625E030E016
S1130250B90182D380931A018BE290E02BE230E063
S1130260F9012081622F607E20911A01422F50E013
S113027021E030E0042E02C0220F331F0A94E2F77B
S1130280262BFC01208389E290E0FC0180818072AE
S1130290882321F080911A0180931C01DF91CF9172
S11302A00895CF93DF930F92CDB7DEB780911C01F1
S11302B0882F90E0009731F09923FCF08530910568
S11302C0E4F403C081E046DF1AC080911C01882F4A
S11302D090E00197880F991F8670898388E290E0E7
S11302E028E230E0F9012081322F397F2981232B44
S11302F0FC01208380E02EDF02C080E02BDF0F9022
S1130300DF91CF910895CF93DF93CDB7DEB789E224
S113031090E0FC018081882F90E08074907021E04F
S1130320009709F420E020932101DF91CF910895F3
S1130330CF93DF93CDB7DEB780912101882329F0D5
S113034081E0CEDE81E092DE04C080E0C9DE80E0A0
S11303508DDEDF91CF910895CF93DF93CDB7DEB7D4
S1130360F8948AE790E02AE730E0F90120812064DC
S1130370FC0120837894DF91CF910895CF93DF938C
S11303800F92CDB7DEB789838EE490E02981FC011A
S1130390208300008DE490E0FC0180818823D4F761
S11303A00F90DF91CF910895CF93DF9300D00F92F8
S11303B0CDB7DEB79B838A838A819B819695879587
S11303C096958795898389810F900F900F90DF917F
S11303D0CF910895CF93DF9300D0CDB7DEB78A8352
S11303E084E089838A81882359F085E290E025E2BC
S11303F030E0F90130812981232BFC0120830CC0DA
S113040085E290E025E230E0F9012081322F298154
S113041020952323FC0120830F900F90DF91CF912F
S11304200895CF93DF93CDB7DEB729970FB6F8942D
S1130430DEBF0FBECDBF8F83798768878885998596
S1130440FC0180818A838885998501969C838B83AE
S11304508A81882F90E0019628853985820F931F21
S11304609E838D838B819C81FC0190818F81981761
S113047028F08D819E81FC0180819DC08A81882F16
S113048090E001972B813C81820F931FFC019081A6
S11304908F81891758F08A81882F90E001972D81E8
S11304A03E81820F931FFC01808185C08A81825026
S11304B089838981882F90E02B813C81820F931F4F
S11304C0FC0190818F81891720F48981815089836F
S11304D0F0CF8981882F90E02B813C81820F931F7C
S11304E0FC0190818F81981751F48981882F90E0C5
S11304F02D813E81820F931FFC0180815CC0898124
S1130500882F90E001962D813E81820F931FFC017C
S11305108081282F30E08981882F90E04D815E8191
S1130520840F951FFC018081882F90E0A901481B4E
S1130530590B8F81282F30E08981882F90E06B81BF
S11305407C81860F971FFC018081882F90E0281BF7
S1130550390B429FC001439F900D529F900D11246F
S11305602981222F30E02F5F3F4F4B815C81240F84
S1130570351FF9012081422F50E02981222F30E0DC
S11305806B817C81260F371FF9012081222F30E0F7
S1130590BA01621B730B9B01B901DED19B01C90136
S11305A0482F8981882F90E02D813E81820F931FEF
S11305B0FC018081840F29960FB6F894DEBF0FBE2C
S11305C0CDBFDF91CF910895CF93DF9300D000D0BA
S11305D000D0CDB7DEB79A8389837C836B835E8337
S11305E04D8329813A818B819C812817390714F422
S11305F080E00AC02D813E8189819A8128173907BC
S113060014F480E001C081E026960FB6F894DEBFB2
S11306100FBECDBFDF91CF910895CF93DF93CDB7B8
S1130620DEB728970FB6F894DEBF0FBECDBF81E0CA
S113063090E09E838D838091220190912301B4DE0A
S1130640882F90E09A8389832091180130911901B1
S11306508D819E81A901481B590B2091180130916D
S113066019018D819E81280F391F89819A81BA01D0
S1130670A901AADF882339F080911801909119010A
S11306809A83898306C089819A8190931901809302
S113069018011B821C82809121018823A1F484E02B
S11306A090E098878F83898120E031E0B901B9DE39
S11306B08B8399818F81292F281B822F20E031E0A1
S11306C0B901AFDE8C83F89480E084DE8C8156DE41
S11306D08B8154DE81E07EDE789428960FB6F89400
S11306E0DEBF0FBECDBFDF91CF9108951F920F9251
S11306F00FB60F9211248F939F93EF93FF93CF9391
S1130700DF93CDB7DEB7F89486E490E0FC01108265
S11307107894DF91CF91FF91EF919F918F910F90FA
S11307200FBE0F901F9018951F920F920FB60F9245
S11307301124CF93DF93CDB7DEB7F8947894DF918B
S1130740CF910F900FBE0F901F9018951F920F928C
S11307500FB60F9211242F933F934F935F936F9390
S11307607F938F939F93AF93BF93EF93FF93CF9315
S1130770DF93CDB7DEB7F89460DDC5DD82EB90E0A2
S1130780FC01108221DD7894DF91CF91FF91EF91EC
S1130790BF91AF919F918F917F916F915F914F9195
S11307A03F912F910F900FBE0F901F9018951F929D
S11307B00F920FB60F9211248F939F93EF93FF9391
S11307C0CF93DF93CDB7DEB7F89488E790E0FC01D0
S11307D0808191810024880F991F001C880F991F24
S11307E0001C892F902D90932301809322017894EB
S11307F0DF91CF91FF91EF919F918F910F900FBE59
S11308000F901F901895CF93DF93CDB7DEB784E692
S113081090E0FC01108280E690E0FC01108285E209
S113082090E02FEFFC01208384E290E02FEEFC01A6
S1130830208388E290E0FC01108287E290E02EEBB6
S1130840FC0120838BE290E0FC0110828AE290E0BC
S11308502FE9FC01208384E490E0FC01108285E40C
S113086090E025E0FC01208387E490E02AE5FC0188
S1130870208386E490E0FC0110828EE690E022E082
S1130880FC01208380EB90E0FC01108281EB90E07E
S113089027E0FC01208383EB90E023ECFC01208320
S11308A082EB90E0FC01108280E790E022E0FC0102
S11308B020838CE790E020E6FC0120838EE790E023
S11308C021E0FC0120838BE790E023E0FC012083FE
S11308D08AE790E02FEAFC0120838CE490E02EE587
S11308E0FC0120837894DF91CF910895CF93DF9317
S11308F0CDB7DEB710921D0110921E0110921F0198
S11309001092200181E080931C0181E080932101F9
S11309101092230110922201DF91CF910895CF9379
S1130920DF93CDB7DEB76FDFE1DF16DD02C081E014
S11309309DDB80911D0190911E01A0911F01B0913A
S1130940200183309105A105B10588F380E08EDB99
S1130950A8DC63DEEDDCFCCF97FB092E07260AD06A
S113096077FD04D00CD006D000201AF47095619560
S11309707F4F0895F6F7909581959F4F0895AA1B90
S1130980BB1B51E107C0AA1FBB1FA617B70710F076
S1130990A61BB70B881F991F5A95A9F780959095A8
S10D09A0BC01CD010895F894FFCFC7
S11309AA0B001A334D668099B3CCE6FF005E8CAB1C
S10B09BABDCFD9E6F0FAFF00FD
S9030000FC
